:020000040800F2
:1000000000500020FD0E0008C90C0008CF0C0008AD
:10001000D50C0008DB0C0008E10C00080000000013
:10002000000000000000000000000000E70C0008D5
:10003000F30C000800000000FF0C00080B0D000886
:10004000450F0008450F0008450F0008450F000840
:10005000450F0008450F0008450F0008450F000830
:10006000450F0008450F0008450F0008450F000820
:10007000450F0008450F0008450F0008190D00083E
:10008000450F00082D0D0008450F0008410D000820
:10009000550D0008450F0008450F0008690D0008C0
:1000A000450F0008450F0008450F0008450F0008E0
:1000B000790D0008450F0008450F0008450F00089E
:1000C000450F0008450F0008450F0008450F0008C0
:1000D000450F00088D0D0008450F0008450F00086A
:1000E000A10D0008450F0008450F000800000000A2
:1000F0000000000000000000000000000000000000
:0C01000000000000000000005FF808F1A3
:10010C0010B5054C237833B9044B13B10448AFF345
:10011C0000800123237010BD380100200000000076
:10012C0014B6000808B5034B1BB103490348AFF3E1
:10013C00008008BD000000003C01002014B600083F
:10014C0080B500AF01224FF480713D4801F0C7FC2F
:10015C00012280213A4801F0C2FC0322C121394816
:10016C000AF0E9FB4FF47A7303223649364804F05F
:10017C0071FD4FF47A7306223449334804F0EDFDD7
:10018C00642000F03DFF2F4BC0221A702D4B002233
:10019C005A702C4B00229A702A4B3D22DA70294B54
:1001AC0017221A71274B80225A714FF47A73062248
:1001BC002449254804F04EFD4FF47A730622234956
:1001CC00214804F0CAFD642000F01AFF0322C1216B
:1001DC001C480AF0B0FB3A2200211C480AF0ABFB89
:1001EC004FF47A7303221749174804F033FD4FF488
:1001FC007A7306221549144804F0AFFD642000F010
:10020C00FFFE00224FF480710D4801F068FC0022C3
:10021C0080210B4801F063FC642000F0F1FE0C4BD4
:10022C00DB680B4A23F40053D360094B8B229A6092
:10023C00074BDB68064A43F40053D36000BF80BD14
:10024C00000C0140B402002028020020F002002023
:10025C000038014080B582B000AF0023FB71402113
:10026C002F4801F025FC0346002B03D0FB7943F00B
:10027C000103FB7120212A4801F01AFC0346002BD4
:10028C0003D0FB7943F00203FB711021244801F0E9
:10029C000FFC0346002B03D0FB7943F00403FB71E6
:1002AC0008211F4801F004FC0346002B03D0FB7906
:1002BC0043F00803FB710421194801F0F9FB0346D4
:1002CC00002B03D0FB7943F01003FB714FF48051EA
:1002DC00134801F0EDFB0346002B03D0FB7943F0F0
:1002EC002003FB714FF400510D4801F0E1FB034674
:1002FC00002B03D0FB7943F04003FB714FF480419A
:10030C00074801F0D5FB0346002B03D0FB7963F0C3
:10031C007F03FB71FB7918460837BD4680BD00BFD3
:10032C00000C014080B500AF00F008FE00F08EF824
:10033C0000F01CFA00F0F4F900F0E2F800F058F9C3
:10034C0000F0C4F909F0EAFDFFF784FF03461A46F2
:10035C00344B1A70FFF7F4FE3A223349334804F059
:10036C008EFD334B1B681A68314B1B6822F004025C
:10037C001A6000212F4803F049FE04212D4803F098
:10038C0045FE08212B4803F041FE00212A4803F0CA
:10039C003DFE0421284803F039FE0821264803F0CD
:1003AC0035FE14E04FF08043FF225A634FF0804338
:1003BC00FF229A634FF08043FF22DA631F4BFF2228
:1003CC005A631E4BFF229A631C4BFF22DA631C4BB1
:1003DC001B78012BE6D0134B1B78DB00194A1A440F
:1003EC00194B1068516803C3174B1A784FF08043B0
:1003FC005A63154B5A784FF080439A63124B9A7894
:10040C004FF08043DA63104B1A790C4B5A630E4B46
:10041C005A790A4B9A630C4B9A79084BDA6300BFF2
:10042C00D5E700BF34050020F00200202802002090
:10043C0070020020540100209C01002000040040A8
:10044C00350500202C0300202C05002080B594B02D
:10045C0000AF07F128032822002118460AF06BFA96
:10046C0007F1140300221A605A609A60DA601A616C
:10047C003B1D00221A605A609A60DA600123BB624D
:10048C004FF48033FB6200233B630123BB630223E5
:10049C007B644FF48033BB644FF48023FB6407F11F
:1004AC002803184603F09AF80346002B01D000F0FD
:1004BC007BFA0F237B610123BB610023FB610023CB
:1004CC003B6200237B6207F114030021184603F002
:1004DC0007FB0346002B01D000F066FA10237B606B
:1004EC004FF480033B613B1D184603F089FC034627
:1004FC00002B01D000F058FA00BF5037BD4680BD2C
:10050C0080B58AB000AF07F1200300221A605A6050
:10051C003B1D00221A605A609A60DA601A615A61B7
:10052C009A61324B4FF080421A60304B00225A6075
:10053C002E4B00229A602D4BFF22DA602B4B0022AF
:10054C001A612A4B00229A61284803F00FFD0346DA
:10055C00002B01D000F028FA00233B6200237B62C1
:10056C0007F120031946214804F0B4FA0346002B86
:10057C0001D000F019FA60237B600023BB600023DC
:10058C00FB6000237B613B1D00221946174803F0DA
:10059C00ADFF0346002B01D000F006FA3B1D0422F0
:1005AC001946124803F0A2FF0346002B01D000F0BD
:1005BC00FBF93B1D082219460C4803F097FF034634
:1005CC00002B01D000F0F0F93B1D0C221946074816
:1005DC0003F08CFF0346002B01D000F0E5F9034833
:1005EC0000F084FA00BF2837BD4680BD54010020BE
:1005FC0080B58AB000AF07F1200300221A605A6060
:10060C003B1D00221A605A609A60DA601A615A61C6
:10061C009A612C4B2C4A1A602A4B00225A60294BA7
:10062C0000229A60274BFF22DA60264B00221A61C7
:10063C00244B00229A61234803F098FC0346002BBC
:10064C0001D000F0B1F900233B6200237B6207F17B
:10065C00200319461B4804F03DFA0346002B01D039
:10066C0000F0A2F960237B600023BB600023FB60D9
:10067C0000237B613B1D00221946124803F036FF14
:10068C000346002B01D000F08FF93B1D04221946C4
:10069C000C4803F02BFF0346002B01D000F084F92B
:1006AC003B1D08221946074803F020FF0346002B88
:1006BC0001D000F079F9034800F018FA00BF283790
:1006CC00BD4680BD9C0100200004004080B500AFF9
:1006DC00114B124A1A60104B4FF416525A600E4BC3
:1006EC0000229A600C4B0022DA600B4B00221A613C
:1006FC00094B0C225A61084B00229A61064B0022CE
:10070C00DA61054804F056FA0346002B01D000F0DC
:10071C004BF900BF80BD00BF28020020003801400B
:10072C0080B582B000AF104B5B690F4A43F00103F8
:10073C0053610D4B5B6903F001037B607B68002206
:10074C0000210F2000F057FD0F2000F070FD00225B
:10075C000021112000F04FFD112000F068FD00BFBA
:10076C000837BD4680BD00BF0010024080B588B080
:10077C0000AF07F1100300221A605A609A60DA6029
:10078C00444B9B69434A43F020039361414B9B6963
:10079C0003F02003FB60FB683E4B9B693D4A43F032
:1007AC00040393613B4B9B6903F00403BB60BB6880
:1007BC00384B9B69374A43F008039361354B9B696F
:1007CC0003F008037B607B6800224FF48071324891
:1007DC0001F085F900224FF4C071304801F07FF927
:1007EC0047F27C033B6100237B610223BB6107F171
:1007FC0010031946294800F0D7FF4FF480733B6172
:10080C0001237B610023BB610223FB6107F1100311
:10081C001946214800F0C8FF4FF400433B61204BC0
:10082C007B610023BB6107F1100319461A4800F0E5
:10083C00BBFF4FF4C0733B6101237B610023BB61A1
:10084C000223FB6107F110031946144800F0ACFFBA
:10085C004FF400733B61124B7B610023BB6107F1CA
:10086C00100319460D4800F09FFF002200211720AD
:10087C0000F0C1FC172000F0DAFC00220021282037
:10088C0000F0B9FC282000F0D2FC00BF2037BD4698
:10089C0080BD00BF0010024000080140000C014068
:1008AC000000111080B584B000AF78600B467B80DF
:1008BC007B681B681B4A934230D11B4B1A781A4B2E
:1008CC005B789A4213D8184B5B780A2B0FD8164BCF
:1008DC001B785A1E1346DB009B1ADB00FB60FB687F
:1008EC00124A13443822124918460AF09FF83A2249
:1008FC0000210D480AF01FF84FF480710D4801F0EB
:10090C0006F93A2208490C4804F0B9FA0B4B1B685B
:10091C001A680A4B1B6822F004021A6000BF1037D9
:10092C00BD4680BD00380140F00200202C030020A1
:10093C00F202002000080140280200207002002072
:10094C0080B582B000AF78600C21054803F000FC44
:10095C00044B01221A7000BF0837BD4680BD00BF92
:10096C00540100203605002080B483B000AF03464C
:10097C00FB80FB88B3F5007F0ED0B3F5004F00D0A1
:10098C000BE0084B1B78002B0CBF01230023DBB2C0
:10099C001A46044B1A7000E000BF00BF0C37BD466E
:1009AC0080BC70473505002080B400AF72B600BF24
:1009BC00FEE7000080B485B000AF154B9B69144A6C
:1009CC0043F001039361124B9B6903F00103BB607D
:1009DC00BB680F4BDB690E4A43F08053D3610C4B61
:1009EC00DB6903F080537B607B680A4B5B68FB60C0
:1009FC00FB6823F0E063FB60FB6843F00073FB6073
:100A0C00044AFB68536000BF1437BD4680BC704776
:100A1C00001002400000014080B584B000AF786047
:100A2C007B681B68B3F1804F42D12C4BDB692B4A9E
:100A3C0043F00103D361294BDB6903F00103FB6035
:100A4C00FB68274B274A1A60254B10225A60244B0F
:100A5C0000229A60224B8022DA60214B4FF4807284
:100A6C001A611F4B4FF480625A611D4B00229A6130
:100A7C001B4B0022DA611A4800F0F4FB0346002BF2
:100A8C0001D0FFF791FF7B68154A9A62144A7B6884
:100A9C0053627B68124A1A63114A7B6853620022C4
:100AAC0000211C2000F0A7FB1C2000F0C0FB10E074
:100ABC007B681B680C4A93420BD1084BDB69074AD5
:100ACC0043F00203D361054BDB6903F00203BB6007
:100ADC00BB6800BF1037BD4680BD00BF0010024090
:100AEC00E4010020800002400004004080B58AB080
:100AFC0000AF786007F1180300221A605A609A6000
:100B0C00DA607B681B68B3F1804F18D1284B9B6966
:100B1C00274A43F004039361254B9B6903F00403BC
:100B2C007B617B690F23BB610223FB6102237B6228
:100B3C0007F1180319461F4800F036FE34E07B68B5
:100B4C001B681D4A93422FD1194B9B69184A43F0DD
:100B5C0004039361164B9B6903F004033B613B69EF
:100B6C00134B9B69124A43F008039361104B9B692A
:100B7C0003F00803FB60FB68C023BB610223FB612D
:100B8C0002237B6207F1180319460A4800F00CFE99
:100B9C000123BB610223FB6102237B6207F1180373
:100BAC001946064800F000FE00BF2837BD4680BD40
:100BBC00001002400008014000040040000C0140FD
:100BCC0080B588B000AF786007F1100300221A607E
:100BDC005A609A60DA607B681B68334A93425FD133
:100BEC00324B9B69314A43F4804393612F4B9B6991
:100BFC0003F48043FB60FB682C4B9B692B4A43F04E
:100C0C0004039361294B9B6903F00403BB60BB682D
:100C1C004FF400733B6102237B610323FB6107F1FB
:100C2C0010031946224800F0BFFD4FF480633B616E
:100C3C0000237B610023BB6107F1100319461C489C
:100C4C0000F0B2FD1B4B1C4A1A601A4B00225A6072
:100C5C00184B00229A60174B8022DA60154B002249
:100C6C001A61144B00225A61124B00229A61114BEB
:100C7C000022DA610F4800F0F5FA0346002B01D090
:100C8C00FFF792FE7B680B4ADA630A4A7B68536271
:100C9C0000220021252000F0AEFA252000F0C7FA32
:100CAC0000BF2037BD4680BD003801400010024017
:100CBC0000080140700200205800024080B400AFD0
:100CCC00FEE780B400AFFEE780B400AFFEE780B46F
:100CDC0000AFFEE780B400AFFEE780B400AF00BF0A
:100CEC00BD4680BC704780B400AF00BFBD4680BC21
:100CFC00704780B400AF00BFBD4680BC704780B564
:100D0C0000AF00F061F900BF80BD000080B500AFFE
:100D1C00024800F015FC00BF80BD00BF700200202F
:100D2C0080B500AF024800F00BFC00BF80BD00BFD7
:100D3C00E401002080B500AF024801F064F800BF68
:100D4C0080BD00BF040B002080B500AF024801F04D
:100D5C005AF800BF80BD00BF040B002080B500AF67
:100D6C004FF4007000F0ECFE00BF80BD80B500AF0A
:100D7C00024803F0B3FA00BF80BD00BF540100204D
:100D8C0080B500AF024804F0D7F800BF80BD00BFAB
:100D9C002802002080B500AF4FF4004000F0D0FED8
:100DAC0000BF80BD80B586B000AFF860B9607A60D6
:100DBC0000237B610AE0AFF300800146BB685A1C3C
:100DCC00BA60CAB21A707B6901337B617A697B683D
:100DDC009A42F0DB7B6818461837BD4680BD80B55B
:100DEC0086B000AFF860B9607A6000237B6109E0DF
:100DFC00BB685A1CBA601B781846AFF300807B693D
:100E0C0001337B617A697B689A42F1DB7B68184617
:100E1C001837BD4680BD80B483B000AF78604FF00A
:100E2C00FF3318460C37BD4680BC704780B483B086
:100E3C0000AF786039603B684FF400525A60002371
:100E4C0018460C37BD4680BC704780B483B000AFE9
:100E5C007860012318460C37BD4680BC704780B4BF
:100E6C0085B000AFF860B9607A600023184614377B
:100E7C00BD4680BC7047000080B586B000AF78607E
:100E8C00144A154BD31A7B617B693B61134B1B686E
:100E9C00002B02D1114B124A1A60104B1A687B6856
:100EAC0013443A699A4207D209F094FD03460C2286
:100EBC001A604FF0FF3309E0084B1B68FB60074BCF
:100ECC001A687B681344054A1360FB681846183788
:100EDC00BD4680BD005000200004000038050020F5
:100EEC006013002080B400AF00BFBD4680BC7047CB
:100EFC00FFF7F8FF0B480C490C4A002302E0D458CA
:100F0C00C4500433C4188C42F9D3094A094C002349
:100F1C0001E013600432A242FBD309F061FDFFF73C
:100F2C0001FA704700000020380100207CB700084F
:100F3C003801002060130020FEE7000080B500AFF0
:100F4C00084B1B68074A43F010031360032000F0A2
:100F5C0047F90F2000F008F8FFF72CFD0023184686
:100F6C0080BD00BF0020024080B582B000AF786029
:100F7C00124B1A68124B1B7819464FF47A73B3FB59
:100F8C00F1F3B2FBF3F3184600F05FF90346002BC4
:100F9C0001D001230EE07B680F2B0AD80022796860
:100FAC004FF0FF3000F027F9064A7B6813600023EE
:100FBC0000E0012318460837BD4680BD0000002024
:100FCC00080000200400002080B400AF054B1B7803
:100FDC001A46054B1B681344034A136000BFBD46F9
:100FEC0080BC7047080000203C05002080B400AF96
:100FFC00024B1B681846BD4680BC70473C05002060
:10100C0080B584B000AF7860FFF7F0FFB8607B6804
:10101C00FB60FB68B3F1FF3F05D00A4B1B781A4607
:10102C00FB681344FB6000BFFFF7E0FF0246BB68A0
:10103C00D31AFA689A42F7D800BF00BF1037BD46E2
:10104C0080BD00BF0800002080B485B000AF786080
:10105C007B6803F00703FB600C4BDB68BB60BA6872
:10106C004FF6FF031340BB60FB681A02BB681343C7
:10107C0043F0BF6343F40033BB60044ABB68D360E6
:10108C0000BF1437BD4680BC704700BF00ED00E0C8
:10109C0080B400AF044BDB681B0A03F0070318464F
:1010AC00BD4680BC704700BF00ED00E080B483B04B
:1010BC0000AF0346FB7197F90730002B0BDBFB7974
:1010CC0003F01F02064997F907305B09012000FA6B
:1010DC0002F241F8232000BF0C37BD4680BC70479C
:1010EC0000E100E080B483B000AF03463960FB71CF
:1010FC0097F90730002B0ADB3B68DAB20C4997F9F9
:10110C0007301201D2B20B4483F800230AE03B688B
:10111C00DAB20849FB7903F00F03043B1201D2B297
:10112C000B441A7600BF0C37BD4680BC704700BF1D
:10113C0000E100E000ED00E080B489B000AFF860A1
:10114C00B9607A60FB6803F00703FB61FB69C3F1CC
:10115C000703042B28BF0423BB61FB690433062B54
:10116C0002D9FB69033B00E000237B614FF0FF32A7
:10117C00BB6902FA03F3DA43BB681A407B699A40F5
:10118C004FF0FF317B6901FA03F3D9437B680B40C5
:10119C00134318462437BD4680BC704780B582B0D7
:1011AC0000AF78607B68013BB3F1807F01D30123F2
:1011BC000FE00A4A7B68013B53600F214FF0FF3070
:1011CC00FFF790FF054B00229A60044B07221A6030
:1011DC00002318460837BD4680BD00BF10E000E074
:1011EC0080B582B000AF78607868FFF72DFF00BF44
:1011FC000837BD4680BD80B586B000AF0346B960E8
:10120C007A60FB7300237B61FFF742FF78617A6899
:10121C00B9687869FFF790FF024697F90F301146CD
:10122C001846FFF75FFF00BF1837BD4680BD80B57D
:10123C0082B000AF0346FB7197F907301846FFF7F1
:10124C0035FF00BF0837BD4680BD80B582B000AF0A
:10125C0078607868FFF7A2FF034618460837BD464A
:10126C0080BD000080B485B000AF78600023FB60C7
:10127C007B68002B01D1012343E07B681B681A4675
:10128C00224B1344224AA2FB03231B099A007B68BE
:10129C001A647B681F4ADA637B68022283F8212078
:1012AC007B681B681B68FB60FB6823F47F5323F08F
:1012BC003003FB607B685A687B689B681A437B68C9
:1012CC00DB681A437B681B691A437B685B691A43AA
:1012DC007B689B691A437B68DB691343FA68134389
:1012EC00FB607B681B68FA681A607B6800229A6353
:1012FC007B68012283F821207B68002283F8202060
:10130C00002318461437BD4680BC7047F8FFFDBF5C
:10131C00CDCCCCCC0000024080B586B000AFF860DC
:10132C00B9607A603B600023FB75FB6893F8203052
:10133C00012B01D102234BE0FB68012283F8202012
:10134C00FB6893F82130DBB2012B3AD1FB68022207
:10135C0083F82120FB6800229A63FB681B681A68DB
:10136C00FB681B6822F001021A603B687A68B96856
:10137C00F86800F0EBF9FB68DB6A002B08D0FB681F
:10138C001B681A68FB681B6842F00E021A600FE0BB
:10139C00FB681B681A68FB681B6822F004021A6061
:1013AC00FB681B681A68FB681B6842F00A021A602B
:1013BC00FB681B681A68FB681B6842F001021A6024
:1013CC0005E0FB68002283F820200223FB75FB7DDF
:1013DC0018461837BD4680BD80B485B000AF786024
:1013EC000023FB737B6893F82130DBB2022B08D00F
:1013FC007B6804229A637B68002283F820200123F7
:10140C0020E07B681B681A687B681B6822F00E0260
:10141C001A607B681B681A687B681B6822F00102E3
:10142C001A607B681A6C7B68DB6B012101FA02F293
:10143C005A607B68012283F821207B68002283F8A4
:10144C002020FB7B18461437BD4680BC704700003B
:10145C0080B584B000AF78600023FB737B6893F891
:10146C002130DBB2022B05D07B6804229A63012366
:10147C00FB7351E07B681B681A687B681B6822F061
:10148C000E021A607B681B681A687B681B6822F066
:10149C0001021A607B681B68224A934229D07B6840
:1014AC001B68214A934222D07B681B681F4A9342D7
:1014BC001AD07B681B681E4A934212D07B681B684B
:1014CC001C4A93420AD07B681B681B4A934202D188
:1014DC004FF480130EE04FF080730BE04FF4803329
:1014EC0008E04FF4805305E04FF4807302E01023C2
:1014FC0000E00123114A53607B68012283F821200C
:10150C007B68002283F820207B685B6B002B03D068
:10151C007B685B6B78689847FB7B18461037BD4639
:10152C0080BD00BF080002401C0002403000024099
:10153C0044000240580002406C000240000002408F
:10154C0080B584B000AF78607B68DB6B1B68FB6098
:10155C007B681B681B68BB607B681B6C04229A4011
:10156C00FB681340002B4FD0BB6803F00403002B27
:10157C004AD07B681B681B6803F02003002B07D143
:10158C007B681B681A687B681B6822F004021A606F
:10159C007B681B68664A934229D07B681B68654A46
:1015AC00934222D07B681B68634A93421AD07B68B3
:1015BC001B68624A934212D07B681B68604A934254
:1015CC000AD07B681B685F4A934202D14FF48003B8
:1015DC000EE04FF080630BE04FF4802308E04FF4F3
:1015EC00804305E04FF4806302E0402300E00423D5
:1015FC00554A53607B68DB6A002B00F094807B6853
:10160C00DB6A786898478EE07B681B6C02229A40F4
:10161C00FB681340002B56D0BB6803F00203002B71
:10162C0051D07B681B681B6803F02003002B0BD187
:10163C007B681B681A687B681B6822F00A021A60B8
:10164C007B68012283F821207B681B68384A93420F
:10165C0029D07B681B68374A934222D07B681B6871
:10166C00354A93421AD07B681B68344A934212D095
:10167C007B681B68324A93420AD07B681B68314AEC
:10168C00934202D14FF400130EE04FF000730BE0C5
:10169C004FF4003308E04FF4005305E04FF40073AF
:1016AC0002E0202300E00223274A53607B680022DB
:1016BC0083F820207B689B6A002B34D07B689B6A64
:1016CC00786898472FE07B681B6C08229A40FB686F
:1016DC001340002B28D0BB6803F00803002B23D049
:1016EC007B681B681A687B681B6822F00E021A6004
:1016FC007B681A6C7B68DB6B012101FA02F25A6081
:10170C007B6801229A637B68012283F821207B6825
:10171C00002283F820207B681B6B002B04D07B6895
:10172C001B6B7868984700BF00BF1037BD4680BD63
:10173C00080002401C0002403000024044000240FD
:10174C00580002406C0002400000024080B485B09A
:10175C0000AFF860B9607A603B60FB681A6CFB689C
:10176C00DB6B012101FA02F25A60FB681B683A68D4
:10177C005A60FB685B68102B08D1FB681B687A68A1
:10178C009A60FB681B68BA68DA6007E0FB681B6844
:10179C00BA689A60FB681B687A68DA6000BF143715
:1017AC00BD4680BC7047000080B48BB000AF786041
:1017BC00396000237B6200233B6269E101227B6A72
:1017CC0002FA03F3FB613B681B68FA691340BB61C7
:1017DC00BA69FB699A4240F058813B685B689A4A47
:1017EC0093425ED0984A934275D8984A934258D007
:1017FC00964A93426FD8964A934252D0944A934257
:10180C0069D8944A93424CD0924A934263D8924AF4
:10181C00934246D0904A93425DD8122B2AD8122B71
:10182C0059D801A252F823F0AF1800088918000803
:10183C009B180008DD180008E3180008E3180008DE
:10184C00E3180008E3180008E3180008E318000880
:10185C00E3180008E3180008E3180008E318000870
:10186C00E3180008E3180008E318000891180008B2
:10187C00A5180008794A934213D02CE03B68DB682A
:10188C003B6229E03B68DB6804333B6224E03B6845
:10189C00DB6808333B621FE03B68DB680C333B6260
:1018AC001AE03B689B68002B02D104233B6213E0D7
:1018BC003B689B68012B05D108233B627B68FA6966
:1018CC001A6109E008233B627B68FA695A6103E0FC
:1018DC0000233B6200E000BFBB69FF2B01D87B6893
:1018EC0001E07B6804337B61BB69FF2B02D87B6A08
:1018FC009B0002E07B6A083B9B003B617B691A689A
:10190C000F213B6901FA03F3DB431A40396A3B6947
:10191C0001FA03F31A437B691A603B685B6803F0B6
:10192C008053002B00F0B1804D4B9B694C4A43F027
:10193C00010393614A4B9B6903F00103BB60BB68D5
:10194C00484A7B6A9B08023352F82330FB607B6A5F
:10195C0003F003039B000F2202FA03F3DB43FA6844
:10196C001340FB607B68404A934213D07B683F4A2C
:10197C0093420DD07B683E4A934207D07B683D4A28
:10198C00934201D1032306E0042304E0022302E086
:10199C00012300E000237A6A02F0030292009340D4
:1019AC00FA681343FB602F497B6A9B080233FA6881
:1019BC0041F823203B685B6803F48013002B06D0AE
:1019CC002D4B9A682C49BB6913438B6006E02A4B5C
:1019DC009A68BB69DB43284913408B603B685B68A2
:1019EC0003F40013002B06D0234BDA682249BB69A1
:1019FC001343CB6006E0204BDA68BB69DB431E491E
:101A0C001340CB603B685B6803F40033002B06D0BB
:101A1C00194B5A681849BB6913434B6006E0164BC7
:101A2C005A68BB69DB43144913404B603B685B68E5
:101A3C0003F48033002B21D00F4B1A680E49BB697D
:101A4C0013430B6021E000BF000032100000311086
:101A5C0000002210000021100000121000001110D4
:101A6C00001002400000014000080140000C014041
:101A7C000010014000140140000401400B4B1A6897
:101A8C00BB69DB43094913400B607B6A01337B6202
:101A9C003B681A687B6A22FA03F3002B7FF48EAE44
:101AAC0000BF00BF2C37BD4680BC7047000401400E
:101ABC0080B485B000AF78600B467B807B689A68F9
:101ACC007B881340002B02D00123FB7301E0002321
:101ADC00FB73FB7B18461437BD4680BC704780B443
:101AEC0083B000AF78600B467B8013467B707B78AD
:101AFC00002B03D07A887B681A6103E07B881A0478
:101B0C007B681A6100BF0C37BD4680BC704780B43F
:101B1C0085B000AF78600B467B807B68DB68FB6030
:101B2C007A88FB6813401A04FB68D9437B880B4006
:101B3C001A437B681A6100BF1437BD4680BC7047DE
:101B4C0080B582B000AF0346FB80084B5A69FB8816
:101B5C001340002B06D0054AFB885361FB881846BE
:101B6C00FEF702FF00BF0837BD4680BD00040140F0
:101B7C00F0B58BB006AF78607B68002B01D10123E8
:101B8C00F1E07B6893F8A932DBB2002B06D17B68BD
:101B9C00002283F8A822786808F03EFB7B680322B9
:101BAC0083F8A9227B681B68184604F0F7F87B6859
:101BBC001B683B607E686D4606F110040FCC0FC5A8
:101BCC0023682B60331D0ECB386804F0C1F8034634
:101BDC00002B05D07B68022283F8A9220123C2E0E6
:101BEC007B681B680021184604F0F2F80023FB7395
:101BFC0040E0FB7B79685A1C13469B001344DB00C6
:101C0C000B44013301221A70FB7B79685A1C134672
:101C1C009B001344DB000B44FA7B1A70FB7B796846
:101C2C005A1C13469B001344DB000B440333002265
:101C3C001A70FA7B796813469B001344DB000B4443
:101C4C00383300221A60FA7B796813469B001344E0
:101C5C00DB000B443C3300221A60FA7B7968134694
:101C6C009B001344DB000B44403300221A60FB7BC7
:101C7C000133FB73FA7B7B685B689A42B9D3002310
:101C8C00FB7344E0FA7B796813469B001344DB003A
:101C9C000B4403F2691300221A70FA7B796813461D
:101CAC009B001344DB000B4403F5B473FA7B1A70EE
:101CBC00FA7B796813469B001344DB000B4403F258
:101CCC006B1300221A70FA7B796813469B0013443D
:101CDC00DB000B4403F5BC7300221A60FA7B7968B5
:101CEC0013469B001344DB000B4403F5BE73002228
:101CFC001A60FA7B796813469B001344DB000B4493
:101D0C0003F5C07300221A60FB7B0133FB73FA7B73
:101D1C007B685B689A42B5D37B681B683B607E68C6
:101D2C006D4606F110040FCC0FC523682B60331DD4
:101D3C000ECB386804F058F80346002B05D07B68AE
:101D4C00022283F8A92201230DE07B68002283F88C
:101D5C0024207B68012283F8A9227B681B68184623
:101D6C0006F0EDF8002318461437BD46F0BD80B5DB
:101D7C0082B000AF78607B6893F8A832012B01D158
:101D8C00022316E07B68012283F8A8227B681B687B
:101D9C00184603F0EDFF0121786808F088FC7B6899
:101DAC001B68184606F0C1F87B68002283F8A8224D
:101DBC00002318460837BD4680BD80B582B000AF01
:101DCC0078607B6893F8A832012B01D1022316E0CE
:101DDC007B68012283F8A8227B681B68184603F0F5
:101DEC00DDFF0021786808F062FC7B681B681846F0
:101DFC0006F0A5F87B68002283F8A8220023184679
:101E0C000837BD4680BD80B588B000AF78607B6870
:101E1C001B68184606F09DF8B861BB6903F40043D3
:101E2C00002B03D0786800F0BCFA19E1BB6903F40D
:101E3C008063002B13D07B681B68B3F844309AB2D4
:101E4C007B681B6822F4806292B2A3F84420786805
:101E5C0008F065FA0021786800F005F900E1BB692B
:101E6C0003F48043002B0CD07B681B68B3F8443020
:101E7C009AB27B681B6822F4804292B2A3F8442089
:101E8C00EEE0BB6903F40053002B0CD07B681B689D
:101E9C00B3F844309AB27B681B6822F4005292B2B9
:101EAC00A3F84420DCE0BB6903F48053002B27D05B
:101EBC007B681B68B3F840309AB27B681B6822F0D1
:101ECC00040292B2A3F840207B681B68B3F8403040
:101EDC009AB27B681B6822F0080292B2A3F84020E9
:101EEC00786808F055FA7B681B68B3F844309AB2EE
:101EFC007B681B6822F4805292B2A3F84420AFE0B6
:101F0C00BB6903F40063002B00F083800023FB7794
:101F1C0010E07B681B681A46FB7F9B001A44FB7F12
:101F2C00128892B25B0020333B4423F8182CFB7FC1
:101F3C000133FB77FB7F072BEBD97B681B68B3F86E
:101F4C0040309AB27B681B6842F0010292B2A3F84F
:101F5C0040207B681B68B3F840309AB27B681B68E2
:101F6C0022F0010292B2A3F8402000BF7B681B68EC
:101F7C00B3F844309BB203F48063002BF6D07B683B
:101F8C001B68B3F844309AB27B681B6822F48062F9
:101F9C0092B2A3F844200023FB770FE0FB7F7A6812
:101FAC0012681146FA7F92000A445B0020333B44CE
:101FBC0033F8183C1380FB7F0133FB77FB7F072B37
:101FCC00ECD97B681B68B3F840309AB27B681B680D
:101FDC0042F0080292B2A3F840207B681B68B3F869
:101FEC0044309AB27B681B6822F4006292B2A3F868
:101FFC0044207B681B68B3F840309AB27B681B683E
:10200C0042F0040292B2A3F84020786808F0A6F9D6
:10201C0026E0BB6903F40073002B0FD07B681B68B0
:10202C00B3F844309AB27B681B6822F4007292B207
:10203C00A3F84420786808F064F911E0BB6903F454
:10204C008073002B0CD07B681B68B3F844309AB2B9
:10205C007B681B6822F4807292B2A3F8442000BF04
:10206C002037BD4680BD80B582B000AF78600B468E
:10207C00FB707B6893F8A832012B01D1022313E08B
:10208C007B68012283F8A8227B68FA7883F82420E5
:10209C007B681B68FA781146184605F033FF7B689D
:1020AC00002283F8A822002318460837BD4680BDBD
:1020BC0080B584B000AF7860084611461A460346D6
:1020CC00FB700B463B801346BB700023FB7297F9E9
:1020DC000330002B0EDAFB7803F007035A1C13466F
:1020EC009B001344DB007A681344FB60FB680122FD
:1020FC005A700EE0FB7803F0070213469B00134462
:10210C00DB0003F5B4737A681344FB60FB680022B0
:10211C005A70FB7803F00703DAB2FB681A703A883E
:10212C00FB681A61FB68BA78DA70BB78022B02D1B3
:10213C00FB6800221A717B6893F8A832012B01D13D
:10214C0002230EE07B68012283F8A8227B681B68BF
:10215C00F968184603F068FE7B68002283F8A82211
:10216C00FB7A18461037BD4680BD80B586B000AFEF
:10217C00F8607A603B600B46FB72FB7A03F0070257
:10218C0013469B001344DB0003F5B473FA68134445
:10219C007B617B697A685A617B693A689A617B6971
:1021AC000022DA617B6900225A70FB7A03F0070384
:1021BC00DAB27B691A70FB681B687969184604F0FF
:1021CC00F3F9002318461837BD4680BD80B586B09C
:1021DC0000AFF8607A603B600B46FB72FB7A03F051
:1021EC0007035A1C13469B001344DB00FA68134484
:1021FC007B617B697A685A617B693A689A617B6911
:10220C00012283F824207B693A681A627B690022D8
:10221C00DA617B6901225A70FB7A03F00703DAB2A8
:10222C007B691A70FB681B687969184604F0BCF965
:10223C00002318461837BD4680BD80B584B000AF6A
:10224C0078600B46FB70FB7803F007027B685B68D9
:10225C009A4201D901234CE097F90330002B0EDA96
:10226C00FB7803F007035A1C13469B001344DB0056
:10227C007A681344FB60FB6801225A700CE0FA7810
:10228C0013469B001344DB0003F5B4737A681344C4
:10229C00FB60FB6800225A70FB6801229A70FB7885
:1022AC0003F00703DAB2FB681A707B6893F8A83264
:1022BC00012B01D102231CE07B68012283F8A822A8
:1022CC007B681B68F968184605F01FFDFB7803F066
:1022DC000703002B08D17B681A687B6803F52C7305
:1022EC001946104605F044FE7B68002283F8A822AC
:1022FC00002318461037BD4680BD80B584B000AFB2
:10230C0078600B46FB70FB7803F00F027B685B6810
:10231C009A4201D9012340E097F90330002B0EDAE1
:10232C00FB7803F007035A1C13469B001344DB0095
:10233C007A681344FB60FB6801225A700EE0FB784C
:10234C0003F0070213469B001344DB0003F5B47340
:10235C007A681344FB60FB6800225A70FB68002209
:10236C009A70FB7803F00703DAB2FB681A707B688B
:10237C0093F8A832012B01D102230EE07B680122D5
:10238C0083F8A8227B681B68F968184605F00DFDD8
:10239C007B68002283F8A822002318461037BD461C
:1023AC0080BD80B596B000AF7860BFE37B681B68DA
:1023BC00B3F84430A7F84E30B7F84E30DBB203F028
:1023CC000F0387F84D3097F84D30002B40F0798192
:1023DC00B7F84E3003F01003002B52D17B681B680A
:1023EC001B889BB223F4E14323F07003FB817B68D1
:1023FC001A68FB896FEA43436FEA53439BB213801D
:10240C007B6828337B657B681B68B3F850309BB2C4
:10241C001A467B6D1B78DB00134402335B007A6831
:10242C001268134403F580631B88C3F309027B6DA8
:10243C00DA617B6D5A697B6DDB691A447B6D5A617D
:10244C000021786807F043FF7B6893F82430DBB2F7
:10245C00002B00F06B837B6D9B69002B40F0668337
:10246C007B6893F82430DBB263F07F03DAB27B68CD
:10247C001B6892B2A3F84C207B68002283F82420BE
:10248C0054E37B6803F5B4737B657B681B681B881E
:10249C00A7F84A30B7F84A3003F40063002B34D065
:1024AC007B681B68B3F850309BB21A467B6D1B7867
:1024BC00DB00134406335B007A681268134403F59F
:1024CC0080631B88C3F309027B6DDA617B68186833
:1024DC007B6803F52C717B6DDA887B6DDB699BB2B5
:1024EC0005F096FD7B681B681B889AB240F68F73CB
:1024FC0013403B827B681B683A8A42F0800292B29E
:10250C001A80786807F0B6FE10E3B7F94A30002B52
:10251C0080F20C837B681B681B889AB240F68F7321
:10252C001340FB837B681B68FA8B42F0800292B2EB
:10253C001A807B681B68B3F850309BB21A467B6DCF
:10254C001B78DB00134406335B007A681268134473
:10255C0003F580631B88C3F309027B6DDA617B6D25
:10256C00DB69002B19D07B6D5B69002B15D07B6868
:10257C0018687B6D59697B6DDA887B6DDB699BB262
:10258C0005F046FD7B6D5A697B6DDB691A447B6DEA
:10259C005A610021786807F07FFE7B681B681B88F6
:1025AC00A7F84A30B7F84A3003F40063002B40F028
:1025BC00BD82B7F84A3003F44053B3F5405F00F0E6
:1025CC00B5827B681B68BB617B681B68B3F85030B5
:1025DC009BB21A46BB691344BB61BB6903F20C4343
:1025EC007B617B691B889BB2C3F309039AB27B693D
:1025FC001A807B6D1B693E2B1DD97B6D1B695B099A
:10260C007B647B6D1B6903F01F03002B02D17B6C79
:10261C00013B7B647B691B889AB27B6C9BB29B02EF
:10262C009BB213439BB26FEA43436FEA53439AB294
:10263C007B691A8026E07B6D1B69002B0AD17B69B4
:10264C001B889BB26FEA43436FEA53439AB27B6990
:10265C001A8017E07B6D1B695B087B647B6D1B69C3
:10266C0003F00103002B02D07B6C01337B647B698C
:10267C001B889AB27B6C9BB29B029BB213439AB29F
:10268C007B691A807B681B681B889BB223F4804390
:10269C0023F070037B827B8A83F480537B827B8A5A
:1026AC0083F400537B827B681A687B8A43F07F43F8
:1026BC0043F47F0343F4004343F080039BB2138045
:1026CC0034E27B681B681A4697F84D309B00134424
:1026DC001B88A7F84A30B7F94A30002B80F2FC80EF
:1026EC007B681B681A4697F84D309B0013441B8877
:1026FC009AB240F68F731340A7F848307B681B687A
:10270C001A4697F84D309B001344B7F8482042F016
:10271C00800292B21A8097F84D2013469B00134406
:10272C00DB0003F5B4737A6813447B657B6D1B7B0C
:10273C00002B25D17B681B68B3F850309BB21A462E
:10274C007B6D1B78DB00134406335B007A681268E0
:10275C00134403F580631B88C3F30903A7F85030B7
:10276C00B7F85030002B00F092807B6818687B6DB6
:10277C0059697B6DDA88B7F8503005F049FC86E072
:10278C007B6DDB78022B0AD1B7F84A301A46796D8B
:10279C00786800F0D9F90346A7F8503077E07B68E9
:1027AC001B681A467B6D1B789B0013441B889BB2DD
:1027BC0023F4E04323F07003A7F852307B681B68C6
:1027CC001A467B6D1B789B001A44B7F8523043F0C5
:1027DC007F4343F47F0343F4004343F0C0039BB2B5
:1027EC0013807B681B681A467B6D1B789B00134417
:1027FC001B889BB203F48043002B24D07B681B689E
:10280C00B3F850309BB21A467B6D1B78DB00134437
:10281C0002335B007A681268134403F580631B88EB
:10282C00C3F30903A7F85030B7F85030002B2ED063
:10283C007B6818687B6D59697B6D1A89B7F85030C5
:10284C0005F0E6FB23E07B681B68B3F850309BB2C5
:10285C001A467B6D1B78DB00134406335B007A68E9
:10286C001268134403F580631B88C3F30903A7F8AC
:10287C005030B7F85030002B09D07B6818687B6D4E
:10288C0059697B6D5A89B7F8503005F0C1FB7B6DE7
:10289C00DA69B7F850301A447B6DDA617B6D5A698E
:1028AC00B7F850301A447B6D5A617B6D9B69002BD5
:1028BC0005D0B7F850207B6D1B699A4206D27B6D10
:1028CC001B781946786807F0E7FC05E07B681B6805
:1028DC00796D184603F068FEB7F84A3003F08003B0
:1028EC00002B00F0238197F84D305A1C13469B00A7
:1028FC001344DB007A6813447B657B681B681A46BB
:10290C0097F84D309B0013441B889BB223F4E14392
:10291C0023F07003A7F842307B681B681A4697F8BF
:10292C004D309B001A44B7F842306FEA43436FEACC
:10293C0053439BB213807B6DDB78012B40F0A2805C
:10294C007B6D00229A617B6D1B7B002B00F09380CA
:10295C00B7F84A3003F04003002B46D07B6D5B7810
:10296C00002B26D17B681B687B627B681B68B3F8E5
:10297C0050309BB21A467B6A13447B627B6D1B788A
:10298C001A017B6A134403F204433B623B6A1B88C3
:10299C009BB2C3F309039AB23B6A1A803B6A1B8849
:1029AC009BB26FEA43436FEA53439AB23B6A1A8075
:1029BC0061E07B6D5B78012B5DD17B681B68FB62F2
:1029CC007B681B68B3F850309BB21A46FB6A134401
:1029DC00FB627B6D1B781A01FB6A134403F2044300
:1029EC00BB62BB6A00221A8045E07B681B68FB63F4
:1029FC007B6D5B78002B26D17B681B687B637B68C7
:102A0C001B68B3F850309BB21A467B6B13447B6344
:102A1C007B6D1B781A017B6B134403F20C433B63F5
:102A2C003B6B1B889BB2C3F309039AB23B6B1A80B6
:102A3C003B6B1B889BB26FEA43436FEA53439AB2DA
:102A4C003B6B1A8017E07B6D5B78012B13D17B6895
:102A5C001B68B3F850309BB21A46FB6B1344FB63F4
:102A6C007B6D1B781A01FB6B134403F20C43BB63A5
:102A7C00BB6B00221A807B6D1B781946786807F0B7
:102A8C0026FC53E0B7F84A3003F48073002B46D190
:102A9C007B681B68B3F850309BB21A467B6D1B7871
:102AAC00DB00134402335B007A681268134403F5AD
:102ABC0080631B88C3F30903A7F840307B6D9A69C8
:102ACC00B7F840309A4207D97B6D9A69B7F8403015
:102ADC00D21A7B6D9A6102E07B6D00229A617B6D4C
:102AEC009B69002B06D17B6D1B781946786807F023
:102AFC00EEFB1BE07B6D5A69B7F840301A447B6DD6
:102B0C005A617B6DDA69B7F840301A447B6DDA6133
:102B1C007B681B68796D184603F046FD06E0B7F834
:102B2C004A301A46796D786800F01BF97B681B688F
:102B3C00B3F844309BB21BB2002BFFF637AC00232A
:102B4C0018465837BD4680BD80B588B000AFF860D8
:102B5C00B9601346FB80FB8803F48043002B7ED0C6
:102B6C00FB681B68B3F850309BB21A46BB681B78E5
:102B7C00DB00134402335B00FA681268134403F55C
:102B8C0080631B88C3F309037B83BB689A697B8BC7
:102B9C009A4206D3BB689A697B8BD21ABB689A613E
:102BAC0002E0BB6800229A61BB689B69002B23D1B1
:102BBC00FB681B681A46BB681B789B0013441B8878
:102BCC009BB223F4804323F070033B833B8B83F451
:102BDC0000533B83FB681B681A46BB681B789B0041
:102BEC001A443B8B43F07F4343F47F0343F400438D
:102BFC0043F080039BB21380FB8803F04003002B4F
:102C0C001FD0FB681B681A46BB681B789B001344DB
:102C1C001B889BB223F4E04323F07003FB82FB6818
:102C2C001B681A46BB681B789B001A44FB8A43F04E
:102C3C007F4343F47F0343F4004343F0C0039BB250
:102C4C0013807B8B002B00F08780FB681868BB68B7
:102C5C005969BB681A897B8B05F0DAF97CE0FB6853
:102C6C001B68B3F850309BB21A46BB681B78DB006C
:102C7C00134406335B00FA681268134403F580634F
:102C8C001B88C3F309037B83BB689A697B8B9A42CD
:102C9C0006D3BB689A697B8BD21ABB689A6102E037
:102CAC00BB6800229A61BB689B69002B23D1FB682F
:102CBC001B681A46BB681B789B0013441B889BB28D
:102CCC0023F4804323F07003FB83FB8B83F40053CA
:102CDC00FB83FB681B681A46BB681B789B001A4475
:102CEC00FB8B43F07F4343F47F0343F4004343F0F7
:102CFC0080039BB21380FB8803F04003002B1FD191
:102D0C00FB681B681A46BB681B789B0013441B8826
:102D1C009BB223F4E04323F07003BB83FB681B6876
:102D2C001A46BB681B789B001A44BB8B43F07F434D
:102D3C0043F47F0343F4004343F0C0039BB213807E
:102D4C007B8B002B08D0FB681868BB685969BB6883
:102D5C005A897B8B05F05CF97B8B18462037BD4676
:102D6C0080BD80B5A4B000AFF860B9601346FB809D
:102D7C00FB8803F04003002B00F0DD81FB681B682F
:102D8C00B3F850309BB21A46BB681B78DB00134477
:102D9C0002335B00FA681268134403F580631B88E6
:102DAC00C3F30903A7F88630BB689A69B7F8863075
:102DBC009A4207D9BB689A69B7F88630D21ABB68B1
:102DCC009A6102E0BB6800229A61BB689B69002B88
:102DDC0040F0B980BB685B78002B26D1FB681B6880
:102DEC00FB62FB681B68B3F850309BB21A46FB6A57
:102DFC001344FB62BB681B781A01FB6A134403F291
:102E0C000443BB62BB6A1B889BB2C3F309039AB22F
:102E1C00BB6A1A80BB6A1B889BB26FEA43436FEA9A
:102E2C0053439AB2BB6A1A801AE0BB685B78012BD9
:102E3C0016D1FB681B687B63FB681B68B3F85030CA
:102E4C009BB21A467B6B13447B63BB681B781A01DD
:102E5C007B6B134403F204433B633B6B00221A80ED
:102E6C00FB681B687B62BB685B78002B26D1FB6818
:102E7C001B68FB61FB681B68B3F850309BB21A46A9
:102E8C00FB691344FB61BB681B781A01FB69134493
:102E9C0003F20C43BB61BB691B889BB2C3F30903F0
:102EAC009AB2BB691A80BB691B889BB26FEA434319
:102EBC006FEA53439AB2BB691A8017E0BB685B7820
:102ECC00012B13D1FB681B68B3F850309BB21A4628
:102EDC007B6A13447B62BB681B781A017B6A1344C0
:102EEC0003F20C433B623B6A00221A80BB681B78DE
:102EFC001946F86807F0EBF9FB8803F48043002BC4
:102F0C0000F0FC82FB681B681A46BB681B789B00B0
:102F1C0013441B889BB223F4E04323F07003FB8221
:102F2C00FB681B681A46BB681B789B001A44FB8A1B
:102F3C0043F07F4343F47F0343F4404343F0800367
:102F4C009BB21380DAE2FB8803F48043002B21D080
:102F5C00FB681B681A46BB681B789B0013441B88D4
:102F6C009BB223F4E04323F07003A7F88A30FB688C
:102F7C001B681A46BB681B789B001A44B7F88A304A
:102F8C0043F07F4343F47F0343F4404343F0800317
:102F9C009BB21380BB6893F82430012B40F0AE82B7
:102FAC00BB685A69B7F886301A44BB685A61BB686B
:102FBC00DA69B7F886301A44BB68DA61BB681A6AFA
:102FCC00BB681B699A420BD3BB681B69C7F88C3072
:102FDC00BB681A6AD7F88C30D21ABB681A6217E031
:102FEC00BB681B6A002B08D1B7F88630C7F88C3049
:102FFC00BB68002283F824200AE0BB68002283F817
:10300C002420BB681B6AC7F88C30BB6800221A628C
:10301C00BB685B78002B65D1FB681B68FB63FB68A6
:10302C001B68B3F850309BB21A46FB6B1344FB631E
:10303C00BB681B781A01FB6B134403F20443BB639C
:10304C00BB6B1B889BB2C3F309039AB2BB6B1A8090
:10305C00D7F88C303E2B1DD9D7F88C305B09BB646C
:10306C00D7F88C3003F01F03002B02D1BB6C013B53
:10307C00BB64BB6B1B889AB2BB6C9BB29B029BB2B2
:10308C0013439BB26FEA43436FEA53439AB2BB6B51
:10309C001A8044E0D7F88C30002B0AD1BB6B1B880C
:1030AC009BB26FEA43436FEA53439AB2BB6B1A80ED
:1030BC0035E0D7F88C305B08BB64D7F88C3003F064
:1030CC000103002B02D0BB6C0133BB64BB6B1B88B0
:1030DC009AB2BB6C9BB29B029BB213439AB2BB6B72
:1030EC001A801CE0BB685B78012B18D1FB681B684D
:1030FC007B64FB681B68B3F850309BB21A467B6C40
:10310C0013447B64BB681B781A017B6C134403F279
:10311C0004433B64D7F88C309AB23B6C1A80FB6842
:10312C001868BB685969BB681A89D7F88C309BB290
:10313C0004F029FFE2E1FB681B68B3F850309BB246
:10314C001A46BB681B78DB00134406335B00FA6835
:10315C001268134403F580631B88C3F30903A7F8B3
:10316C008630BB689A69B7F886309A4207D3BB6839
:10317C009A69B7F88630D21ABB689A6102E0BB68CC
:10318C0000229A61BB689B69002B40F0C080BB6831
:10319C005B78002B26D1FB681B68FB67FB681B6800
:1031AC00B3F850309BB21A46FB6F1344FB67BB68F5
:1031BC001B781A01FB6F134403F20443BB67BB6F0C
:1031CC001B889BB2C3F309039AB2BB6F1A80BB6F07
:1031DC001B889BB26FEA43436FEA53439AB2BB6FAF
:1031EC001A801AE0BB685B78012B16D1FB681B6850
:1031FC007B66FB681B68B3F850309BB21A467B6E3B
:10320C0013447B66BB681B781A017B6E134403F274
:10321C0004433B663B6E00221A80FB681B687B678D
:10322C00BB685B78002B2BD1FB681B68FB66FB68CB
:10323C001B68B3F850309BB21A46FB6E1344FB6606
:10324C00BB681B781A01FB6E134403F20C43C7F8DE
:10325C008030D7F880301B889BB2C3F309039AB235
:10326C00D7F880301A80D7F880301B889BB26FEA71
:10327C0043436FEA53439AB2D7F880301A8017E071
:10328C00BB685B78012B13D1FB681B68B3F850301B
:10329C009BB21A467B6F13447B67BB681B781A0181
:1032AC007B6F134403F20C433B673B6F00221A8085
:1032BC00BB681B781946F86807F009F8FB8803F41B
:1032CC008043002B40F01A81FB681B681A46BB68D0
:1032DC001B789B0013441B889BB223F4E04323F020
:1032EC007003A7F88830FB681B681A46BB681B780C
:1032FC009B001A44B7F8883043F07F4343F47F03B4
:10330C0043F4404343F080039BB21380F6E0FB8808
:10331C0003F48043002B21D1FB681B681A46BB6861
:10332C001B789B0013441B889BB223F4E04323F0CF
:10333C007003A7F84E30FB681B681A46BB681B78F5
:10334C009B001A44B7F84E3043F07F4343F47F039D
:10335C0043F4404343F080039BB21380BB6893F863
:10336C002430012B40F0CA80BB685A69B7F886300C
:10337C001A44BB685A61BB68DA69B7F886301A44DC
:10338C00BB68DA61BB681A6ABB681B699A420BD3CB
:10339C00BB681B69C7F88C30BB681A6AD7F88C30CD
:1033AC00D21ABB681A6217E0BB681B6A002B08D1E3
:1033BC00B7F88630C7F88C30BB68002283F824201D
:1033CC000AE0BB681B6AC7F88C30BB6800221A6223
:1033DC00BB68002283F82420FB681B687B65BB68F4
:1033EC005B78002B65D1FB681B68FB65FB681B6871
:1033FC00B3F850309BB21A46FB6D1344FB65BB68A7
:10340C001B781A01FB6D134403F20C43BB65BB6DB7
:10341C001B889BB2C3F309039AB2BB6D1A80D7F811
:10342C008C303E2B1DD9D7F88C305B09BB66D7F896
:10343C008C3003F01F03002B02D1BB6E013BBB662B
:10344C00BB6D1B889AB2BB6E9BB29B029BB21343A3
:10345C009BB26FEA43436FEA53439AB2BB6D1A8037
:10346C0041E0D7F88C30002B0AD1BB6D1B889BB286
:10347C006FEA43436FEA53439AB2BB6D1A8032E052
:10348C00D7F88C305B08BB66D7F88C3003F001039F
:10349C00002B02D0BB6E0133BB66BB6D1B889AB28E
:1034AC00BB6E9BB29B029BB213439AB2BB6D1A804C
:1034BC0019E0BB685B78012B15D1FB681B68B3F86E
:1034CC0050309BB21A467B6D13447B65BB681B78EE
:1034DC001A017B6D134403F20C433B65D7F88C3017
:1034EC009AB23B6D1A80FB681868BB685969BB6857
:1034FC005A89D7F88C309BB204F045FDFB681B68E9
:10350C001A46BB681B789B0013441B889BB223F4A0
:10351C00E04323F04003BB82BB8A83F01003BB82E1
:10352C00BB8A83F02003BB82FB681B681A46BB680E
:10353C001B789B001A44BB8A43F07F4343F47F0300
:10354C0043F4004343F080039BB2138000231846DE
:10355C009037BD4680BD80B487B000AFF8607B600B
:10356C000B467B8113463B817B8903F080039BB226
:10357C00002B0BD07B8903F007035A1C13469B00CE
:10358C001344DB00FA6813447B6109E07A89134623
:10359C009B001344DB0003F5B473FA6813447B619E
:1035AC003B89002B07D17B6900221A737B689AB286
:1035BC007B69DA800BE07B6901221A737B689AB213
:1035CC007B691A817B681B0C9AB27B695A81002338
:1035DC0018461C37BD4680BC7047000080B586B0CD
:1035EC0000AF78607B68002B01D1012372E27B680D
:1035FC001B6803F00103002B00F08780924B5B6883
:10360C0003F00C03042B0CD08F4B5B6803F00C0302
:10361C00082B12D18C4B5B6803F48033B3F5803FDD
:10362C000BD1894B1B6803F40033002B6CD07B68E7
:10363C005B68002B68D101234CE27B685B68B3F5B7
:10364C00803F06D1804B1B687F4A43F48033136064
:10365C002EE07B685B68002B0CD17B4B1B687A4A95
:10366C0023F480331360784B1B68774A23F4802350
:10367C0013601DE07B685B68B3F5A02F0CD1724B17
:10368C001B68714A43F4802313606F4B1B686E4AAE
:10369C0043F4803313600BE06B4B1B686A4A23F4D2
:1036AC0080331360684B1B68674A23F480231360D4
:1036BC007B685B68002B13D0FDF798FC386108E041
:1036CC00FDF794FC02463B69D31A642B01D9032302
:1036DC0000E25D4B1B6803F40033002BF0D014E0C8
:1036EC00FDF784FC386108E0FDF780FC02463B697D
:1036FC00D31A642B01D90323ECE1534B1B6803F45D
:10370C000033002BF0D100E000BF7B681B6803F096
:10371C000203002B63D04C4B5B6803F00C03002BB3
:10372C000BD0494B5B6803F00C03082B1CD1464BA8
:10373C005B6803F48033002B16D1434B1B6803F0FA
:10374C000203002B05D07B681B69012B01D00123E0
:10375C00C0E13D4B1B6823F0F8027B685B69DB0022
:10376C00394913430B603AE07B681B69002B20D06E
:10377C00364B01221A60FDF739FC386108E0FDF781
:10378C0035FC02463B69D31A022B01D90323A1E174
:10379C002D4B1B6803F00203002BF0D02A4B1B6847
:1037AC0023F0F8027B685B69DB00274913430B604D
:1037BC0015E0264B00221A60FDF718FC386108E072
:1037CC00FDF714FC02463B69D31A022B01D90323E3
:1037DC0080E11D4B1B6803F00203002BF0D17B68CA
:1037EC001B6803F00803002B3AD07B689B69002B05
:1037FC0019D0174B01221A60FDF7F8FB386108E06D
:10380C00FDF7F4FB02463B69D31A022B01D90323C3
:10381C0060E10D4B5B6A03F00203002BF0D001203A
:10382C0000F0D0FA1CE00A4B00221A60FDF7DEFB18
:10383C0038610FE0FDF7DAFB02463B69D31A022B25
:10384C0008D9032346E100BF0010024000004242A9
:10385C0080044242924B5B6A03F00203002BE9D1D5
:10386C007B681B6803F00403002B00F0A680002388
:10387C00FB758B4BDB6903F08053002B0DD1884B10
:10388C00DB69874A43F08053D361854BDB6903F0D6
:10389C008053BB60BB680123FB75824B1B6803F430
:1038AC008073002B18D17F4B1B687E4A43F48073C6
:1038BC001360FDF79BFB386108E0FDF797FB0246B0
:1038CC003B69D31A642B01D9032303E1754B1B68A5
:1038DC0003F48073002BF0D07B68DB68012B06D1DE
:1038EC006F4B1B6A6E4A43F0010313622DE07B6839
:1038FC00DB68002B0CD16A4B1B6A694A23F001036D
:10390C001362674B1B6A664A23F0040313621CE0C4
:10391C007B68DB68052B0CD1614B1B6A604A43F05A
:10392C00040313625E4B1B6A5D4A43F0010313628E
:10393C000BE05B4B1B6A5A4A23F001031362584B92
:10394C001B6A574A23F0040313627B68DB68002B65
:10395C0015D0FDF74BFB38610AE0FDF747FB02463B
:10396C003B69D31A41F28832934201D90323B1E067
:10397C004B4B1B6A03F00203002BEED014E0FDF757
:10398C0035FB38610AE0FDF731FB02463B69D31A7F
:10399C0041F28832934201D903239BE0404B1B6ACE
:1039AC0003F00203002BEED1FB7D012B05D13C4B28
:1039BC00DB693B4A23F08053D3617B68DB69002BC6
:1039CC0000F08780364B5B6803F00C03082B61D04A
:1039DC007B68DB69022B46D1334B00221A60FDF762
:1039EC0005FB386108E0FDF701FB02463B69D31A81
:1039FC00022B01D903236DE0294B1B6803F00073E4
:103A0C00002BF0D17B681B6AB3F5803F08D1244BA7
:103A1C005B6823F400327B689B68214913434B603D
:103A2C001F4B5B6823F474127B68196A7B685B6AB2
:103A3C000B431B4913434B601B4B01221A60FDF7D0
:103A4C00D5FA386108E0FDF7D1FA02463B69D31A82
:103A5C00022B01D903233DE0114B1B6803F00073CB
:103A6C00002BF0D035E0104B00221A60FDF7BEFAA7
:103A7C00386108E0FDF7BAFA02463B69D31A022B0B
:103A8C0001D9032326E0064B1B6803F00073002BBF
:103A9C00F0D11EE07B68DB69012B07D1012319E013
:103AAC000010024000700040600042420B4B5B680B
:103ABC00FB60FB6803F480327B681B6A9A4206D178
:103ACC00FB6803F470127B685B6A9A4201D0012395
:103ADC0000E0002318461837BD4680BD0010024098
:103AEC0080B584B000AF786039607B68002B01D161
:103AFC000123D0E06A4B1B6803F007033A689A4233
:103B0C0010D9674B1B6823F0070265493B681343C8
:103B1C000B60634B1B6803F007033A689A4201D0B1
:103B2C000123B8E07B681B6803F00203002B20D054
:103B3C007B681B6803F00403002B05D0594B5B68B2
:103B4C00584A43F4E06353607B681B6803F0080336
:103B5C00002B05D0534B5B68524A43F460535360BF
:103B6C00504B5B6823F0F0027B689B684D49134314
:103B7C004B607B681B6803F00103002B40D07B6813
:103B8C005B68012B07D1474B1B6803F40033002BF8
:103B9C0015D101237FE07B685B68022B07D1414B79
:103BAC001B6803F00073002B09D1012373E03D4B1C
:103BBC001B6803F00203002B01D101236BE0394B8E
:103BCC005B6823F003027B685B68364913434B60E8
:103BDC00FDF70CFAF8600AE0FDF708FA0246FB68FC
:103BEC00D31A41F28832934201D9032353E02D4B6F
:103BFC005B6803F00C027B685B689B009A42EBD11C
:103C0C00274B1B6803F007033A689A4210D2244BE7
:103C1C001B6823F0070222493B6813430B60204BBF
:103C2C001B6803F007033A689A4201D0012332E083
:103C3C007B681B6803F00403002B08D0194B5B68EE
:103C4C0023F4E0627B68DB68164913434B607B68A6
:103C5C001B6803F00803002B09D0124B5B6823F49C
:103C6C0060527B681B69DB000E4913434B6000F00C
:103C7C0021F802460B4B5B681B0903F00F030A4942
:103C8C00CB5C22FA03F3094A1360094B1B681846F4
:103C9C00FDF76AF9002318461037BD4680BD00BFFA
:103CAC00002002400010024014B700080000002061
:103CBC000400002080B487B000AF0023FB60002319
:103CCC00BB6000237B6100237B6000233B611E4BA8
:103CDC005B68FB60FB6803F00C03042B02D0082B21
:103CEC0003D027E0194B3B6127E0FB689B0C03F0EA
:103CFC000F03174AD35C7B60FB6803F48033002B03
:103D0C0010D0114B5B685B0C03F00103114AD35CC0
:103D1C00BB607B680D4A03FB02F2BB68B2FBF3F39A
:103D2C007B6104E07B680C4A02FB03F37B617B69DB
:103D3C003B6102E0094B3B6100BF3B6918461C37F5
:103D4C00BD4680BC704700BF001002400024F40048
:103D5C002CB700083CB7000800093D0000127A009F
:103D6C0080B400AF024B1B681846BD4680BC704740
:103D7C000000002080B500AFFFF7F2FF0246054BB4
:103D8C005B681B0A03F007030349CB5C22FA03F3BD
:103D9C00184680BD0010024024B7000880B500AF63
:103DAC00FFF7DEFF0246054B5B68DB0A03F00703F7
:103DBC000349CB5C22FA03F3184680BD0010024085
:103DCC0024B7000880B485B000AF78600A4B1B683C
:103DDC000A4AA2FB03235B0A7A6802FB03F3FB602B
:103DEC0000BFFB685A1EFA60002BF9D100BF00BF60
:103DFC001437BD4680BC704700000020D34D6210C4
:103E0C0080B586B000AF786000233B610023FB6077
:103E1C007B681B6803F00103002B7DD00023FB752E
:103E2C004F4BDB6903F08053002B0DD14C4BDB69FE
:103E3C004B4A43F08053D361494BDB6903F0805309
:103E4C00BB60BB680123FB75464B1B6803F4807396
:103E5C00002B18D1434B1B68424A43F48073136008
:103E6C00FDF7C4F8386108E0FDF7C0F802463B697D
:103E7C00D31A642B01D903236DE03A4B1B6803F46E
:103E8C008073002BF0D0364B1B6A03F44073FB603D
:103E9C00FB68002B2ED07B685B6803F44073FA68D8
:103EAC009A4227D02E4B1B6A23F44073FB602E4B97
:103EBC0001221A602C4B00221A60294AFB681362FB
:103ECC00FB6803F00103002B14D0FDF78FF8386169
:103EDC000AE0FDF78BF802463B69D31A41F28832AF
:103EEC00934201D9032336E01D4B1B6A03F00203F6
:103EFC00002BEED01A4B1B6A23F440727B685B6874
:103F0C00174913430B62FB7D012B05D1144BDB6965
:103F1C00134A23F08053D3617B681B6803F00203C0
:103F2C00002B08D00E4B5B6823F440427B689B68E7
:103F3C000B4913434B607B681B6803F01003002B89
:103F4C0008D0074B5B6823F480027B68DB6804496C
:103F5C0013434B60002318461837BD4680BD00BF85
:103F6C0000100240007000404004424280B582B014
:103F7C0000AF78607B68002B01D1012341E07B68A6
:103F8C0093F83D30DBB2002B06D17B68002283F81E
:103F9C003C207868FCF740FD7B68022283F83D20CA
:103FAC007B681A687B6804331946104600F084FB62
:103FBC007B68012283F846207B68012283F83E202F
:103FCC007B68012283F83F207B68012283F8402024
:103FDC007B68012283F841207B68012283F8422010
:103FEC007B68012283F843207B68012283F84420FC
:103FFC007B68012283F845207B68012283F83D20F1
:10400C00002318460837BD4680BD000080B584B03B
:10401C0000AF786039603B68002B09D17B6893F85E
:10402C003E30DBB2012B14BF01230023DBB222E0B4
:10403C003B68042B09D17B6893F83F30DBB2012B32
:10404C0014BF01230023DBB215E03B68082B09D118
:10405C007B6893F84030DBB2012B14BF01230023A3
:10406C00DBB208E07B6893F84130DBB2012B14BF64
:10407C0001230023DBB2002B01D001235EE03B685F
:10408C00002B04D17B68022283F83E2013E03B68AE
:10409C00042B04D17B68022283F83F200BE03B68A1
:1040AC00082B04D17B68022283F8402003E07B6854
:1040BC00022283F841207B681B680122396818466C
:1040CC0000F0E4FC7B681B681E4A934207D17B68B6
:1040DC001B685A6C7B681B6842F400425A647B680C
:1040EC001B68184A93420ED07B681B68B3F1804F53
:1040FC0009D07B681B68144A934204D07B681B6808
:10410C00124A934211D17B681B689B6803F007032A
:10411C00FB60FB68062B10D07B681B681A687B68F9
:10412C001B6842F001021A6007E07B681B681A6882
:10413C007B681B6842F001021A6000231846103796
:10414C00BD4680BD002C014000040040000800402A
:10415C0080B584B000AF786039600023FB733B6896
:10416C000C2B55D801A252F823F000BFAD4100082A
:10417C001D4200081D4200081D420008C9410008EC
:10418C001D4200081D4200081D420008E5410008C0
:10419C001D4200081D4200081D4200080142000893
:1041AC007B681B68DA687B681B6822F40072DA6033
:1041BC007B685B6A1846FDF74BF92CE07B681B6843
:1041CC00DA687B681B6822F48062DA607B689B6A21
:1041DC001846FDF73DF91EE07B681B68DA687B68C2
:1041EC001B6822F40062DA607B68DB6A1846FDF714
:1041FC002FF910E07B681B68DA687B681B6822F477
:10420C008052DA607B681B6B1846FDF721F902E0DF
:10421C000123FB7300BFFB7B002B57D17B681B6812
:10422C0000223968184600F031FC7B681B682A4A6A
:10423C00934217D17B681B681A6A41F21113134021
:10424C00002B0FD17B681B681A6A40F24443134061
:10425C00002B07D17B681B685A6C7B681B6822F4A7
:10426C0000425A647B681B681A6A41F211131340AE
:10427C00002B0FD17B681B681A6A40F24443134031
:10428C00002B07D17B681B681A687B681B6822F0BF
:10429C0001021A603B68002B04D17B68012283F871
:1042AC003E2013E03B68042B04D17B68012283F889
:1042BC003F200BE03B68082B04D17B68012283F87C
:1042CC00402003E07B68012283F84120FB7B1846E9
:1042DC001037BD4680BD00BF002C014080B582B0B8
:1042EC0000AF78607B681B681B6903F00203022B2C
:1042FC0022D17B681B68DB6803F00203022B1BD105
:10430C007B681B686FF002021A617B6801221A77C6
:10431C007B681B689B6903F00303002B03D0786850
:10432C0000F0B8F905E0786800F0ABF97868FCF7B4
:10433C0007FB7B6800221A777B681B681B6903F0FC
:10434C000403042B22D17B681B68DB6803F0040395
:10435C00042B1BD17B681B686FF004021A617B680D
:10436C0002221A777B681B689B6903F44073002B4D
:10437C0003D0786800F08EF905E0786800F081F9D8
:10438C007868FCF7DDFA7B6800221A777B681B687B
:10439C001B6903F00803082B22D17B681B68DB68C0
:1043AC0003F00803082B1BD17B681B686FF0080215
:1043BC001A617B6804221A777B681B68DB6903F03F
:1043CC000303002B03D0786800F064F905E07868EB
:1043DC0000F057F97868FCF7B3FA7B6800221A777B
:1043EC007B681B681B6903F01003102B22D17B68C0
:1043FC001B68DB6803F01003102B1BD17B681B6858
:10440C006FF010021A617B6808221A777B681B68B0
:10441C00DB6903F44073002B03D0786800F03AF9A1
:10442C0005E0786800F02DF97868FCF789FA7B686C
:10443C0000221A777B681B681B6903F00103012BB0
:10444C000ED17B681B68DB6803F00103012B07D1DD
:10445C007B681B686FF001021A61786800F008F93C
:10446C007B681B681B6903F08003802B0ED17B6873
:10447C001B68DB6803F08003802B07D17B681B680B
:10448C006FF080021A61786800F08BFB7B681B6808
:10449C001B6903F04003402B0ED17B681B68DB6863
:1044AC0003F04003402B07D17B681B686FF0400280
:1044BC001A61786800F0F7F87B681B681B6903F0D9
:1044CC002003202B0ED17B681B68DB6803F02003D4
:1044DC00202B07D17B681B686FF020021A6178686B
:1044EC0000F056FB00BF0837BD4680BD80B586B0D6
:1044FC0000AFF860B9607A600023FB75FB6893F835
:10450C003C30012B01D10223AEE0FB68012283F881
:10451C003C207B680C2B00F29F8001A252F823F008
:10452C0061450008654600086546000865460008B8
:10453C00A145000865460008654600086546000868
:10454C00E345000865460008654600086546000816
:10455C0023460008FB681B68B968184600F00EF982
:10456C00FB681B689A69FB681B6842F008029A6139
:10457C00FB681B689A69FB681B6822F004029A614D
:10458C00FB681B689969BB681A69FB681B680A435E
:10459C009A6164E0FB681B68B968184600F054F92E
:1045AC00FB681B689A69FB681B6842F400629A619D
:1045BC00FB681B689A69FB681B6822F480629A612D
:1045CC00FB681B689969BB681B691A02FB681B684E
:1045DC000A439A6143E0FB681B68B968184600F00F
:1045EC009DF9FB681B68DA69FB681B6842F00802DE
:1045FC00DA61FB681B68DA69FB681B6822F004024D
:10460C00DA61FB681B68D969BB681A69FB681B68AF
:10461C000A43DA6123E0FB681B68B968184600F0AE
:10462C00E7F9FB681B68DA69FB681B6842F40062F7
:10463C00DA61FB681B68DA69FB681B6822F480622C
:10464C00DA61FB681B68D969BB681B691A02FB68D5
:10465C001B680A43DA6102E00123FB7500BFFB68AB
:10466C00002283F83C20FB7D18461837BD4680BDE0
:10467C0080B483B000AF786000BF0C37BD4680BCFF
:10468C00704780B483B000AF786000BF0C37BD4674
:10469C0080BC704780B483B000AF786000BF0C372B
:1046AC00BD4680BC704780B483B000AF786000BF5B
:1046BC000C37BD4680BC704780B485B000AF7860C5
:1046CC0039607B681B68FB607B68294A93420BD07E
:1046DC007B68B3F1804F07D07B68264A934203D0A6
:1046EC007B68254A934208D1FB6823F07003FB607A
:1046FC003B685B68FA681343FB607B681C4A934217
:10470C000BD07B68B3F1804F07D07B68194A93427A
:10471C0003D07B68184A934208D1FB6823F440739A
:10472C00FB603B68DB68FA681343FB60FB6823F0B3
:10473C0080023B685B691343FB607B68FA681A6014
:10474C003B689A687B68DA623B681A687B689A6295
:10475C007B68074A934203D13B681A697B681A63EA
:10476C007B6801225A6100BF1437BD4680BC70477C
:10477C00002C0140000400400008004080B487B0C9
:10478C0000AF786039607B681B6A7B617B681B6A51
:10479C0023F001027B681A627B685B683B617B6873
:1047AC009B69FB60FB6823F07003FB60FB6823F0E4
:1047BC000303FB603B681B68FA681343FB607B696F
:1047CC0023F002037B613B689B687A6913437B612E
:1047DC007B681C4A93420CD17B6923F008037B61F4
:1047EC003B68DB687A6913437B617B6923F00403C4
:1047FC007B617B68134A934211D13B6923F480732C
:10480C003B613B6923F400733B613B685B693A692C
:10481C0013433B613B689B693A6913433B617B687B
:10482C003A695A607B68FA689A613B685A687B6897
:10483C005A637B687A691A6200BF1C37BD4680BC1C
:10484C00704700BF002C014080B487B000AF786087
:10485C0039607B681B6A7B617B681B6A23F01002E2
:10486C007B681A627B685B683B617B689B69FB6059
:10487C00FB6823F4E043FB60FB6823F44073FB60AC
:10488C003B681B681B02FA681343FB607B6923F0CF
:10489C0020037B613B689B681B017A6913437B6136
:1048AC007B681D4A93420DD17B6923F080037B61A9
:1048BC003B68DB681B017A6913437B617B6923F0DE
:1048CC0040037B617B68144A934213D13B6923F408
:1048DC0080633B613B6923F400633B613B685B692C
:1048EC009B003A6913433B613B689B699B003A69A7
:1048FC0013433B617B683A695A607B68FA689A613A
:10490C003B685A687B689A637B687A691A6200BF55
:10491C001C37BD4680BC7047002C014080B487B06A
:10492C0000AF786039607B681B6A7B617B681B6AAF
:10493C0023F480727B681A627B685B683B617B68DE
:10494C00DB69FB60FB6823F07003FB60FB6823F002
:10495C000303FB603B681B68FA681343FB607B69CD
:10496C0023F400737B613B689B681B027A691343D9
:10497C007B617B681D4A93420DD17B6923F40063F4
:10498C007B613B68DB681B027A6913437B617B6943
:10499C0023F480637B617B68144A934213D13B6997
:1049AC0023F480533B613B6923F400533B613B6828
:1049BC005B691B013A6913433B613B689B691B01B3
:1049CC003A6913433B617B683A695A607B68FA68C1
:1049DC00DA613B685A687B68DA637B687A691A62C9
:1049EC0000BF1C37BD4680BC704700BF002C014087
:1049FC0080B487B000AF786039607B681B6A3B611C
:104A0C007B681B6A23F480527B681A627B685B6844
:104A1C007B617B68DB69FB60FB6823F4E043FB6034
:104A2C00FB6823F44073FB603B681B681B02FA684D
:104A3C001343FB603B6923F400533B613B689B6869
:104A4C001B033A6913433B617B680F4A934209D1BC
:104A5C007B6923F480437B613B685B699B017A69CA
:104A6C0013437B617B687A695A607B68FA68DA6108
:104A7C003B685A687B681A647B683A691A6200BFA3
:104A8C001C37BD4680BC7047002C014080B487B0F9
:104A9C0000AFF860B9607A60BB6803F01F030122B5
:104AAC0002FA03F37B61FB681A6A7B69DB431A40E9
:104ABC00FB681A62FB681A6ABB6803F01F0379680B
:104ACC0001FA03F31A43FB681A6200BF1C37BD4698
:104ADC0080BC704780B485B000AF786039607B686B
:104AEC0093F83C30012B01D1022346E07B68012274
:104AFC0083F83C207B68022283F83D207B681B688E
:104B0C005B68FB607B681B689B68BB60FB6823F081
:104B1C007003FB603B681B68FA681343FB607B689F
:104B2C001B68FA685A607B681B68164A93420ED061
:104B3C007B681B68B3F1804F09D07B681B68124AF5
:104B4C00934204D07B681B68104A93420CD1BB681B
:104B5C0023F08003BB603B685B68BA681343BB609F
:104B6C007B681B68BA689A607B68012283F83D20D9
:104B7C007B68002283F83C20002318461437BD467E
:104B8C0080BC7047002C014000040040000800402D
:104B9C0080B483B000AF786000BF0C37BD4680BCDA
:104BAC00704780B483B000AF786000BF0C37BD464F
:104BBC0080BC704780B582B000AF78607B68002BFA
:104BCC0001D1012342E07B6893F84130DBB2002B2A
:104BDC0006D17B68002283F840207868FBF7F0FF51
:104BEC007B68242283F841207B681B68DA687B6829
:104BFC001B6822F40052DA60786801F01BF87B68BD
:104C0C001B681A697B681B6822F490421A617B68E6
:104C1C001B685A697B681B6822F02A025A617B6800
:104C2C001B68DA687B681B6842F40052DA607B68A8
:104C3C0000225A647B68202283F841207B68202262
:104C4C0083F842207B6800225A63002318460837F9
:104C5C00BD4680BD80B58AB002AFF860B9603B60DC
:104C6C001346FB8000237B61FB6893F84130DBB279
:104C7C00202B6DD1BB68002B02D0FB88002B01D1FF
:104C8C00012366E0FB6800225A64FB68212283F84A
:104C9C004120FCF7ABF97861FB68FA889A84FB68D1
:104CAC00FA88DA84FB689B68B3F5805F08D1FB68EF
:104CBC001B69002B04D10023FB61BB68BB6103E0C3
:104CCC00BB68FB610023BB612AE03B6800937B69F6
:104CDC0000228021F86800F0E3FC0346002B01D091
:104CEC00032336E0FB69002B0BD1BB691B881A46EA
:104CFC00FB681B68C2F308025A60BB690233BB61D4
:104D0C0007E0FB691A78FB681B685A60FB69013382
:104D1C00FB61FB68DB8C9BB2013B9AB2FB68DA84CB
:104D2C00FB68DB8C9BB2002BCFD13B6800937B697B
:104D3C0000224021F86800F0B3FC0346002B01D0A0
:104D4C00032306E0FB68202283F84120002300E0C7
:104D5C00022318462037BD4680BD80B58AB002AF0D
:104D6C00F860B9603B601346FB8000237B61FB68F5
:104D7C0093F84230DBB2202B7CD1BB68002B02D0E5
:104D8C00FB88002B01D1012375E0FB6800225A64DB
:104D9C00FB68222283F84220FB6800221A63FCF78E
:104DAC0025F97861FB68FA889A85FB68FA88DA85B8
:104DBC00FB689B68B3F5805F08D1FB681B69002B0F
:104DCC0004D10023FB61BB68BB6103E0BB68FB61E2
:104DDC000023BB6143E03B6800937B6900222021E8
:104DEC00F86800F05DFC0346002B01D0032342E081
:104DFC00FB69002B0CD1FB681B685B689BB2C3F38F
:104E0C0008039AB2BB691A80BB690233BB611FE00D
:104E1C00FB689B68B3F5805F07D0FB689B68002B31
:104E2C000AD1FB681B69002B06D1FB681B685B6809
:104E3C00DAB2FB691A7008E0FB681B685B68DBB2CE
:104E4C0003F07F03DAB2FB691A70FB690133FB6173
:104E5C00FB68DB8D9BB2013B9AB2FB68DA85FB6881
:104E6C00DB8D9BB2002BB6D1FB68202283F842204D
:104E7C00002300E0022318462037BD4680BD80B5D4
:104E8C008CB000AFF860B9601346FB80FB6893F8F8
:104E9C004230DBB2202B4AD1BB68002B02D0FB88FE
:104EAC00002B01D1012343E0FB6801221A63FB684C
:104EBC0000225A63FB881A46B968F86800F05EFC59
:104ECC00034687F82F3097F82F30002B2CD1FB6836
:104EDC001B6B012B25D100233B61FB681B681B68F6
:104EEC003B61FB681B685B683B613B69FB681B684B
:104EFC000C33BB61BB6953E8003F7B617B6943F0BA
:104F0C001003BB62FB681B680C33BA6A7A623B62A3
:104F1C00396A7A6A41E80023FB61FB69002BE5D111
:104F2C0002E0012387F82F3097F82F3000E002239E
:104F3C0018463037BD4680BD80B5BAB000AF78603A
:104F4C007B681B681B68C7F8E4307B681B68DB68F0
:104F5C00C7F8E0307B681B685B69C7F8DC3000235E
:104F6C00C7F8D8300023C7F8D430D7F8E43003F0B2
:104F7C000F03C7F8D830D7F8D830002B0FD1D7F89B
:104F8C00E43003F02003002B09D0D7F8E03003F015
:104F9C002003002B03D0786800F08EFD5BE2D7F87D
:104FAC00D830002B00F0DE80D7F8DC3003F00103A2
:104FBC00002B06D1D7F8E03003F49073002B00F0EF
:104FCC00D180D7F8E43003F00103002B0BD0D7F8D5
:104FDC00E03003F48073002B05D07B685B6C43F0EE
:104FEC0001027B685A64D7F8E43003F00403002B09
:104FFC000BD0D7F8DC3003F00103002B05D07B6815
:10500C005B6C43F002027B685A64D7F8E43003F01F
:10501C000203002B0BD0D7F8DC3003F00103002B7C
:10502C0005D07B685B6C43F004027B685A64D7F84C
:10503C00E43003F00803002B11D0D7F8E03003F074
:10504C002003002B05D1D7F8DC3003F00103002B33
:10505C0005D07B685B6C43F008027B685A647B6804
:10506C005B6C002B00F0F281D7F8E43003F02003E6
:10507C00002B08D0D7F8E03003F02003002B02D02F
:10508C00786800F019FD7B681B685B6903F04003CE
:10509C00002B14BF01230023DBB2C7F8D4307B688C
:1050AC005B6C03F00803002B03D1D7F8D430002B32
:1050BC004FD0786800F023FC7B681B685B6903F0B9
:1050CC004003002B41D07B681B681433C7F89C301D
:1050DC00D7F89C3053E8003FC7F89830D7F8983091
:1050EC0023F04003C7F8D0307B681B681433D7F823
:1050FC00D020C7F8A820C7F8A430D7F8A410D7F848
:10510C00A82041E80023C7F8A030D7F8A030002B26
:10511C00D9D17B68DB6B002B13D07B68DB6B7E4AB1
:10512C005A637B68DB6B1846FCF792F90346002B3D
:10513C0016D07B68DB6B5B6B7A68D26B104698473A
:10514C000EE0786800F0A5F90AE0786800F0A1F9A3
:10515C0006E0786800F09DF97B6800225A6475E1DE
:10516C0000BF73E17B681B6B012B40F04F81D7F8BC
:10517C00E43003F01003002B00F04881D7F8E03046
:10518C0003F01003002B00F041810023BB607B680F
:10519C001B681B68BB607B681B685B68BB60BB687B
:1051AC007B681B685B6903F04003002B00F0B68042
:1051BC007B68DB6B1B685B68A7F8BE30B7F8BE304A
:1051CC00002B00F045817B689B8DB7F8BE209A427E
:1051DC0080F03E817B68B7F8BE20DA857B68DB6B9C
:1051EC009B69202B00F088807B681B680C33C7F808
:1051FC008830D7F8883053E8003FC7F88430D7F8A8
:10520C00843023F48073C7F8B8307B681B680C3388
:10521C00D7F8B820C7F89420C7F89030D7F890107A
:10522C00D7F8942041E80023C7F88C30D7F88C309D
:10523C00002BD9D17B681B6814337B677B6F53E8D9
:10524C00003F3B673B6F23F00103C7F8B4307B682A
:10525C001B681433D7F8B420C7F88020FB67F96FAC
:10526C00D7F8802041E80023BB67BB6F002BE1D14E
:10527C007B681B6814333B663B6E53E8003FFB6551
:10528C00FB6D23F04003C7F8B0307B681B68143308
:10529C00D7F8B020FA66BB66B96EFA6E41E8002307
:1052AC007B667B6E002BE3D17B68202283F8422047
:1052BC007B6800221A637B681B680C33FB64FB6CF5
:1052CC0053E8003FBB64BB6C23F01003C7F8AC3051
:1052DC007B681B680C33D7F8AC20BA657B65796D9D
:1052EC00BA6D41E800233B653B6D002BE3D17B6835
:1052FC00DB6B1846FCF770F87B6802225A637B68FC
:10530C009A8D7B68DB8D9BB2D31A9BB21946786859
:10531C00FBF7C8FA9CE000BFCF5900087B689A8D58
:10532C007B68DB8D9BB2D31AA7F8CE307B68DB8D04
:10533C009BB2002B00F08E80B7F8CE30002B00F023
:10534C0089807B681B680C33BB63BB6B53E8003FE5
:10535C007B637B6B23F49073C7F8C8307B681B6846
:10536C000C33D7F8C8207A643B64396C7A6C41E80A
:10537C000023FB63FB6B002BE3D17B681B681433AE
:10538C007B627B6A53E8003F3B623B6A23F001037C
:10539C00C7F8C4307B681B681433D7F8C4203A6351
:1053AC00FB62F96A3A6B41E80023BB62BB6A002BD3
:1053BC00E3D17B68202283F842207B6800221A63A9
:1053CC007B681B680C333B613B6953E8003FFB6017
:1053DC00FB6823F01003C7F8C0307B681B680C33E4
:1053EC00D7F8C020FA61BB61B969FA6941E80023BA
:1053FC007B617B69002BE3D17B6802225A63B7F88F
:10540C00CE3019467868FBF74DFA23E0D7F8E43034
:10541C0003F08003002B09D0D7F8E03003F08003B1
:10542C00002B03D0786800F0E0FA14E0D7F8E430F1
:10543C0003F04003002B0ED0D7F8E03003F040030C
:10544C00002B08D0786800F01FFB04E000BF02E0DE
:10545C0000BF00E000BFE837BD4680BD80B483B01C
:10546C0000AF786000BF0C37BD4680BC704780B47D
:10547C0083B000AF786000BF0C37BD4680BC70476E
:10548C0080B483B000AF786000BF0C37BD4680BCE1
:10549C00704780B483B000AF786000BF0C37BD4656
:1054AC0080BC704780B59CB000AF78607B685B6A4D
:1054BC00FB667B681B681B6803F02003002B72D112
:1054CC00FB6E0022DA85FB6E1B680C33FB64FB6CF5
:1054DC0053E8003FBB64BB6C23F48073BB66FB6E6C
:1054EC001B680C33BA6EBA657B65796DBA6D41E891
:1054FC0000233B653B6D002BE5D1FB6E1B68143321
:10550C00BB63BB6B53E8003F7B637B6B23F00103F6
:10551C007B66FB6E1B6814337A6E7A643B64396C61
:10552C007A6C41E80023FB63FB6B002BE5D1FB6E2F
:10553C001B6814337B627B6A53E8003F3B623B6A17
:10554C0023F040033B66FB6E1B6814333A6E3A63E0
:10555C00FB62F96A3A6B41E80023BB62BB6A002B21
:10556C00E5D1FB6E202283F84220FB6E1B6B012BD6
:10557C0019D1FB6E1B680C333B613B6953E8003F50
:10558C00FB60FB6823F01003FB65FB6E1B680C33A0
:10559C00FA6DFA61BB61B969FA6941E800237B6174
:1055AC007B69002BE5D1FB6E00225A63FB6E1B6BF3
:1055BC00012B06D1FB6E9B8D1946F86EFBF772F929
:1055CC0002E0F86EFFF753FF00BF7037BD4680BD99
:1055DC0080B584B000AF78607B685B6AFB60FB6869
:1055EC0001225A63FB681B6B012B08D1FB689B8D56
:1055FC005B089BB21946F868FBF754F902E0F868AF
:10560C00FFF73EFF00BF1037BD4680BD80B584B0AC
:10561C0000AF78600023FB607B685B6ABB60BB6893
:10562C001B685B6903F08003002B14BF012300236C
:10563C00DBB2FB60BB6893F84130DBB2212B08D1A5
:10564C00FB68002B05D0BB680022DA84B86800F038
:10565C002FF9BB681B685B6903F04003002B14BF78
:10566C0001230023DBB2FB60BB6893F84230DBB252
:10567C00222B08D1FB68002B05D0BB680022DA85F1
:10568C00B86800F03CF9BB685B6C43F01002BB6877
:10569C005A64B868FFF7FDFE00BF1037BD4680BDE9
:1056AC0080B590B000AFF860B9603B601346FB71F9
:1056BC0050E0BB6CB3F1FF3F4CD0BB6C002B07D060
:1056CC00FBF794FC02463B68D31ABA6C9A4241D25F
:1056DC00FB681B680C33BB62BB6A53E8003F7B6200
:1056EC007B6A23F4D073FB63FB681B680C33FA6B87
:1056FC007A633B63396B7A6B41E80023FB62FB6A8C
:10570C00002BE5D1FB681B6814337B617B6953E884
:10571C00003F3B613B6923F00103BB63FB681B68E3
:10572C001433BA6B3A62FB61F9693A6A41E80023B7
:10573C00BB61BB69002BE5D1FB68202283F84120BB
:10574C00FB68202283F84220FB68002283F840206B
:10575C0003230FE0FB681B681A68BB681340BA6828
:10576C009A420CBF01230023DBB21A46FB799A4202
:10577C009FD0002318464037BD4680BD80B598B0F9
:10578C0000AFF860B9601346FB80BA68FB689A6298
:10579C00FB68FA889A85FB6800225A64FB6822220F
:1057AC0083F84220FB68DB6B3E4A9A62FB68DB6B3A
:1057BC003D4ADA62FB68DB6B3C4A1A63FB68DB6BC5
:1057CC0000225A6307F10803FB65FB68D86BFB6882
:1057DC001B6804331946FB6D1A68FB88FBF79CFDAC
:1057EC0000233B61FB681B681B683B61FB681B6803
:1057FC005B683B613B69FB681B69002B19D0FB683C
:10580C001B680C333B643B6C53E8003FFB63FB6B46
:10581C0043F48073BB65FB681B680C33BA6DFA6488
:10582C00BB64B96CFA6C41E800237B647B6C002B85
:10583C00E5D1FB681B681433FB62FB6A53E8003F3D
:10584C00BB62BB6A43F001037B65FB681B681433C6
:10585C007A6DBA637B63796BBA6B41E800233B6367
:10586C003B6B002BE5D1FB681B681433BB61BB6938
:10587C0053E8003F7B617B6943F040033B65FB6869
:10588C001B6814333A6D7A623B62396A7A6A41E872
:10589C000023FB61FB69002BE5D100231846603720
:1058AC00BD4680BDB1540008DD55000819560008EE
:1058BC0080B489B000AF78607B681B680C33FB60E8
:1058CC00FB6853E8003FBB60BB6823F0C003FB617F
:1058DC007B681B680C33FA69BA617B617969BA69B8
:1058EC0041E800233B613B69002BE5D17B6820221A
:1058FC0083F8412000BF2437BD4680BC704780B47C
:10590C0095B000AF78607B681B680C337B637B6B56
:10591C0053E8003F3B633B6B23F49073FB647B6861
:10592C001B680C33FA6C3A64FB63F96B3A6C41E814
:10593C000023BB63BB6B002BE5D17B681B68143366
:10594C003B623B6A53E8003FFB61FB6923F00103B8
:10595C00BB647B681B681433BA6CFA62BB62B96AAD
:10596C00FA6A41E800237B627B6A002BE5D17B68F5
:10597C001B6B012B19D17B681B680C33FB60FB681C
:10598C0053E8003FBB60BB6823F010037B647B686B
:10599C001B680C337A6CBA617B617969BA6941E82E
:1059AC0000233B613B69002BE5D17B68202283F807
:1059BC0042207B6800221A6300BF5437BD4680BC6E
:1059CC00704780B584B000AF78607B685B6AFB6021
:1059DC00FB680022DA85FB680022DA84F868FFF79E
:1059EC0058FD00BF1037BD4680BD80B485B000AFF8
:1059FC0078607B6893F84130DBB2212B3ED17B6819
:105A0C009B68B3F5805F14D17B681B69002B10D1A8
:105A1C007B681B6AFB60FB681B881A467B681B68EB
:105A2C00C2F308025A607B681B6A9A1C7B681A6274
:105A3C0008E07B681B6A591C7A6811621A787B68CB
:105A4C001B685A607B68DB8C9BB2013B9BB27A680B
:105A5C001946D184002B0FD17B681B68DA687B68F0
:105A6C001B6822F08002DA607B681B68DA687B684E
:105A7C001B6842F04002DA60002300E00223184663
:105A8C001437BD4680BC704780B582B000AF7860DB
:105A9C007B681B68DA687B681B6822F04002DA605E
:105AAC007B68202283F841207868FFF7D7FC00231D
:105ABC0018460837BD4680BD80B58CB000AF786005
:105ACC007B6893F84230DBB2222B40F0AE807B68CF
